{
  "_format": "hh-sol-artifact-1",
  "contractName": "MyNFT",
  "sourceName": "contracts/MyNFT.sol",
  "abi": [
    {
      "inputs": [],
      "stateMutability": "nonpayable",
      "type": "constructor"
    },
    {
      "anonymous": false,
      "inputs": [
        {
          "indexed": true,
          "internalType": "address",
          "name": "owner",
          "type": "address"
        },
        {
          "indexed": true,
          "internalType": "address",
          "name": "approved",
          "type": "address"
        },
        {
          "indexed": true,
          "internalType": "uint256",
          "name": "tokenId",
          "type": "uint256"
        }
      ],
      "name": "Approval",
      "type": "event"
    },
    {
      "anonymous": false,
      "inputs": [
        {
          "indexed": true,
          "internalType": "address",
          "name": "owner",
          "type": "address"
        },
        {
          "indexed": true,
          "internalType": "address",
          "name": "operator",
          "type": "address"
        },
        {
          "indexed": false,
          "internalType": "bool",
          "name": "approved",
          "type": "bool"
        }
      ],
      "name": "ApprovalForAll",
      "type": "event"
    },
    {
      "anonymous": false,
      "inputs": [
        {
          "indexed": true,
          "internalType": "address",
          "name": "from",
          "type": "address"
        },
        {
          "indexed": true,
          "internalType": "address",
          "name": "to",
          "type": "address"
        },
        {
          "indexed": true,
          "internalType": "uint256",
          "name": "tokenId",
          "type": "uint256"
        }
      ],
      "name": "Transfer",
      "type": "event"
    },
    {
      "inputs": [
        {
          "internalType": "address",
          "name": "to",
          "type": "address"
        },
        {
          "internalType": "uint256",
          "name": "tokenId",
          "type": "uint256"
        }
      ],
      "name": "approve",
      "outputs": [],
      "stateMutability": "nonpayable",
      "type": "function"
    },
    {
      "inputs": [
        {
          "internalType": "address",
          "name": "owner",
          "type": "address"
        }
      ],
      "name": "balanceOf",
      "outputs": [
        {
          "internalType": "uint256",
          "name": "",
          "type": "uint256"
        }
      ],
      "stateMutability": "view",
      "type": "function"
    },
    {
      "inputs": [
        {
          "internalType": "uint256",
          "name": "tokenId",
          "type": "uint256"
        }
      ],
      "name": "getApproved",
      "outputs": [
        {
          "internalType": "address",
          "name": "",
          "type": "address"
        }
      ],
      "stateMutability": "view",
      "type": "function"
    },
    {
      "inputs": [
        {
          "internalType": "address",
          "name": "owner",
          "type": "address"
        },
        {
          "internalType": "address",
          "name": "operator",
          "type": "address"
        }
      ],
      "name": "isApprovedForAll",
      "outputs": [
        {
          "internalType": "bool",
          "name": "",
          "type": "bool"
        }
      ],
      "stateMutability": "view",
      "type": "function"
    },
    {
      "inputs": [],
      "name": "maxQuantity",
      "outputs": [
        {
          "internalType": "uint256",
          "name": "",
          "type": "uint256"
        }
      ],
      "stateMutability": "view",
      "type": "function"
    },
    {
      "inputs": [
        {
          "internalType": "uint256",
          "name": "quantity",
          "type": "uint256"
        }
      ],
      "name": "mint",
      "outputs": [],
      "stateMutability": "payable",
      "type": "function"
    },
    {
      "inputs": [],
      "name": "name",
      "outputs": [
        {
          "internalType": "string",
          "name": "",
          "type": "string"
        }
      ],
      "stateMutability": "view",
      "type": "function"
    },
    {
      "inputs": [],
      "name": "owner",
      "outputs": [
        {
          "internalType": "address",
          "name": "",
          "type": "address"
        }
      ],
      "stateMutability": "view",
      "type": "function"
    },
    {
      "inputs": [
        {
          "internalType": "uint256",
          "name": "tokenId",
          "type": "uint256"
        }
      ],
      "name": "ownerOf",
      "outputs": [
        {
          "internalType": "address",
          "name": "",
          "type": "address"
        }
      ],
      "stateMutability": "view",
      "type": "function"
    },
    {
      "inputs": [],
      "name": "promptDescription",
      "outputs": [
        {
          "internalType": "string",
          "name": "",
          "type": "string"
        }
      ],
      "stateMutability": "view",
      "type": "function"
    },
    {
      "inputs": [
        {
          "internalType": "address",
          "name": "from",
          "type": "address"
        },
        {
          "internalType": "address",
          "name": "to",
          "type": "address"
        },
        {
          "internalType": "uint256",
          "name": "tokenId",
          "type": "uint256"
        }
      ],
      "name": "safeTransferFrom",
      "outputs": [],
      "stateMutability": "nonpayable",
      "type": "function"
    },
    {
      "inputs": [
        {
          "internalType": "address",
          "name": "from",
          "type": "address"
        },
        {
          "internalType": "address",
          "name": "to",
          "type": "address"
        },
        {
          "internalType": "uint256",
          "name": "tokenId",
          "type": "uint256"
        },
        {
          "internalType": "bytes",
          "name": "data",
          "type": "bytes"
        }
      ],
      "name": "safeTransferFrom",
      "outputs": [],
      "stateMutability": "nonpayable",
      "type": "function"
    },
    {
      "inputs": [
        {
          "internalType": "address",
          "name": "operator",
          "type": "address"
        },
        {
          "internalType": "bool",
          "name": "approved",
          "type": "bool"
        }
      ],
      "name": "setApprovalForAll",
      "outputs": [],
      "stateMutability": "nonpayable",
      "type": "function"
    },
    {
      "inputs": [
        {
          "internalType": "bytes4",
          "name": "interfaceId",
          "type": "bytes4"
        }
      ],
      "name": "supportsInterface",
      "outputs": [
        {
          "internalType": "bool",
          "name": "",
          "type": "bool"
        }
      ],
      "stateMutability": "view",
      "type": "function"
    },
    {
      "inputs": [],
      "name": "symbol",
      "outputs": [
        {
          "internalType": "string",
          "name": "",
          "type": "string"
        }
      ],
      "stateMutability": "view",
      "type": "function"
    },
    {
      "inputs": [
        {
          "internalType": "uint256",
          "name": "index",
          "type": "uint256"
        }
      ],
      "name": "tokenByIndex",
      "outputs": [
        {
          "internalType": "uint256",
          "name": "",
          "type": "uint256"
        }
      ],
      "stateMutability": "view",
      "type": "function"
    },
    {
      "inputs": [
        {
          "internalType": "address",
          "name": "owner",
          "type": "address"
        },
        {
          "internalType": "uint256",
          "name": "index",
          "type": "uint256"
        }
      ],
      "name": "tokenOfOwnerByIndex",
      "outputs": [
        {
          "internalType": "uint256",
          "name": "",
          "type": "uint256"
        }
      ],
      "stateMutability": "view",
      "type": "function"
    },
    {
      "inputs": [
        {
          "internalType": "uint256",
          "name": "tokenId",
          "type": "uint256"
        }
      ],
      "name": "tokenURI",
      "outputs": [
        {
          "internalType": "string",
          "name": "",
          "type": "string"
        }
      ],
      "stateMutability": "view",
      "type": "function"
    },
    {
      "inputs": [],
      "name": "totalSupply",
      "outputs": [
        {
          "internalType": "uint256",
          "name": "",
          "type": "uint256"
        }
      ],
      "stateMutability": "view",
      "type": "function"
    },
    {
      "inputs": [
        {
          "internalType": "address",
          "name": "from",
          "type": "address"
        },
        {
          "internalType": "address",
          "name": "to",
          "type": "address"
        },
        {
          "internalType": "uint256",
          "name": "tokenId",
          "type": "uint256"
        }
      ],
      "name": "transferFrom",
      "outputs": [],
      "stateMutability": "nonpayable",
      "type": "function"
    }
  ],
  "bytecode": "0x60806040526005600b556040518060600160405280602681526020016200372f60269139600c9081620000339190620003c0565b50604051806080016040528060518152602001620036de60519139600d90816200005e9190620003c0565b503480156200006c57600080fd5b506040518060400160405280600b81526020017f73757065724865726f65730000000000000000000000000000000000000000008152506040518060400160405280600381526020017f43525400000000000000000000000000000000000000000000000000000000008152508160009081620000ea9190620003c0565b508060019081620000fc9190620003c0565b50505033600a60006101000a81548173ffffffffffffffffffffffffffffffffffffffff021916908373ffffffffffffffffffffffffffffffffffffffff160217905550620004a7565b600081519050919050565b7f4e487b7100000000000000000000000000000000000000000000000000000000600052604160045260246000fd5b7f4e487b7100000000000000000000000000000000000000000000000000000000600052602260045260246000fd5b60006002820490506001821680620001c857607f821691505b602082108103620001de57620001dd62000180565b5b50919050565b60008190508160005260206000209050919050565b60006020601f8301049050919050565b600082821b905092915050565b600060088302620002487fffffffffffffffffffffffffffffffffffffffffffffffffffffffffffffffff8262000209565b62000254868362000209565b95508019841693508086168417925050509392505050565b6000819050919050565b6000819050919050565b6000620002a16200029b62000295846200026c565b62000276565b6200026c565b9050919050565b6000819050919050565b620002bd8362000280565b620002d5620002cc82620002a8565b84845462000216565b825550505050565b600090565b620002ec620002dd565b620002f9818484620002b2565b505050565b5b81811015620003215762000315600082620002e2565b600181019050620002ff565b5050565b601f82111562000370576200033a81620001e4565b6200034584620001f9565b8101602085101562000355578190505b6200036d6200036485620001f9565b830182620002fe565b50505b505050565b600082821c905092915050565b6000620003956000198460080262000375565b1980831691505092915050565b6000620003b0838362000382565b9150826002028217905092915050565b620003cb8262000146565b67ffffffffffffffff811115620003e757620003e662000151565b5b620003f38254620001af565b6200040082828562000325565b600060209050601f83116001811462000438576000841562000423578287015190505b6200042f8582620003a2565b8655506200049f565b601f1984166200044886620001e4565b60005b8281101562000472578489015182556001820191506020850194506020810190506200044b565b868310156200049257848901516200048e601f89168262000382565b8355505b6001600288020188555050505b505050505050565b61322780620004b76000396000f3fe60806040526004361061011f5760003560e01c806370a08231116100a0578063a22cb46511610064578063a22cb46514610400578063b88d4fde14610429578063c87b56dd14610452578063e640cf7d1461048f578063e985e9c5146104ba5761011f565b806370a08231146103265780638da5cb5b14610363578063953637311461038e57806395d89b41146103b9578063a0712d68146103e45761011f565b806323b872dd116100e757806323b872dd1461021d5780632f745c591461024657806342842e0e146102835780634f6ccce7146102ac5780636352211e146102e95761011f565b806301ffc9a71461012457806306fdde0314610161578063081812fc1461018c578063095ea7b3146101c957806318160ddd146101f2575b600080fd5b34801561013057600080fd5b5061014b6004803603810190610146919061217a565b6104f7565b60405161015891906121c2565b60405180910390f35b34801561016d57600080fd5b50610176610571565b604051610183919061226d565b60405180910390f35b34801561019857600080fd5b506101b360048036038101906101ae91906122c5565b610603565b6040516101c09190612333565b60405180910390f35b3480156101d557600080fd5b506101f060048036038101906101eb919061237a565b610649565b005b3480156101fe57600080fd5b50610207610760565b60405161021491906123c9565b60405180910390f35b34801561022957600080fd5b50610244600480360381019061023f91906123e4565b61076d565b005b34801561025257600080fd5b5061026d6004803603810190610268919061237a565b6107cd565b60405161027a91906123c9565b60405180910390f35b34801561028f57600080fd5b506102aa60048036038101906102a591906123e4565b610872565b005b3480156102b857600080fd5b506102d360048036038101906102ce91906122c5565b610892565b6040516102e091906123c9565b60405180910390f35b3480156102f557600080fd5b50610310600480360381019061030b91906122c5565b610903565b60405161031d9190612333565b60405180910390f35b34801561033257600080fd5b5061034d60048036038101906103489190612437565b610989565b60405161035a91906123c9565b60405180910390f35b34801561036f57600080fd5b50610378610a40565b6040516103859190612333565b60405180910390f35b34801561039a57600080fd5b506103a3610a66565b6040516103b0919061226d565b60405180910390f35b3480156103c557600080fd5b506103ce610af8565b6040516103db919061226d565b60405180910390f35b6103fe60048036038101906103f991906122c5565b610b8a565b005b34801561040c57600080fd5b5061042760048036038101906104229190612490565b610c7e565b005b34801561043557600080fd5b50610450600480360381019061044b9190612605565b610c94565b005b34801561045e57600080fd5b50610479600480360381019061047491906122c5565b610cf6565b604051610486919061226d565b60405180910390f35b34801561049b57600080fd5b506104a4610d5e565b6040516104b191906123c9565b60405180910390f35b3480156104c657600080fd5b506104e160048036038101906104dc9190612688565b610d64565b6040516104ee91906121c2565b60405180910390f35b60007f780e9d63000000000000000000000000000000000000000000000000000000007bffffffffffffffffffffffffffffffffffffffffffffffffffffffff1916827bffffffffffffffffffffffffffffffffffffffffffffffffffffffff1916148061056a575061056982610df8565b5b9050919050565b606060008054610580906126f7565b80601f01602080910402602001604051908101604052809291908181526020018280546105ac906126f7565b80156105f95780601f106105ce576101008083540402835291602001916105f9565b820191906000526020600020905b8154815290600101906020018083116105dc57829003601f168201915b5050505050905090565b600061060e82610eda565b6004600083815260200190815260200160002060009054906101000a900473ffffffffffffffffffffffffffffffffffffffff169050919050565b600061065482610903565b90508073ffffffffffffffffffffffffffffffffffffffff168373ffffffffffffffffffffffffffffffffffffffff16036106c4576040517f08c379a00000000000000000000000000000000000000000000000000000000081526004016106bb9061279a565b60405180910390fd5b8073ffffffffffffffffffffffffffffffffffffffff166106e3610f25565b73ffffffffffffffffffffffffffffffffffffffff16148061071257506107118161070c610f25565b610d64565b5b610751576040517f08c379a00000000000000000000000000000000000000000000000000000000081526004016107489061282c565b60405180910390fd5b61075b8383610f2d565b505050565b6000600880549050905090565b61077e610778610f25565b82610fe6565b6107bd576040517f08c379a00000000000000000000000000000000000000000000000000000000081526004016107b4906128be565b60405180910390fd5b6107c883838361107b565b505050565b60006107d883610989565b8210610819576040517f08c379a000000000000000000000000000000000000000000000000000000000815260040161081090612950565b60405180910390fd5b600660008473ffffffffffffffffffffffffffffffffffffffff1673ffffffffffffffffffffffffffffffffffffffff168152602001908152602001600020600083815260200190815260200160002054905092915050565b61088d83838360405180602001604052806000815250610c94565b505050565b600061089c610760565b82106108dd576040517f08c379a00000000000000000000000000000000000000000000000000000000081526004016108d4906129e2565b60405180910390fd5b600882815481106108f1576108f0612a02565b5b90600052602060002001549050919050565b60008061090f83611374565b9050600073ffffffffffffffffffffffffffffffffffffffff168173ffffffffffffffffffffffffffffffffffffffff1603610980576040517f08c379a000000000000000000000000000000000000000000000000000000000815260040161097790612a7d565b60405180910390fd5b80915050919050565b60008073ffffffffffffffffffffffffffffffffffffffff168273ffffffffffffffffffffffffffffffffffffffff16036109f9576040517f08c379a00000000000000000000000000000000000000000000000000000000081526004016109f090612b0f565b60405180910390fd5b600360008373ffffffffffffffffffffffffffffffffffffffff1673ffffffffffffffffffffffffffffffffffffffff168152602001908152602001600020549050919050565b600a60009054906101000a900473ffffffffffffffffffffffffffffffffffffffff1681565b6060600c8054610a75906126f7565b80601f0160208091040260200160405190810160405280929190818152602001828054610aa1906126f7565b8015610aee5780601f10610ac357610100808354040283529160200191610aee565b820191906000526020600020905b815481529060010190602001808311610ad157829003601f168201915b5050505050905090565b606060018054610b07906126f7565b80601f0160208091040260200160405190810160405280929190818152602001828054610b33906126f7565b8015610b805780601f10610b5557610100808354040283529160200191610b80565b820191906000526020600020905b815481529060010190602001808311610b6357829003601f168201915b5050505050905090565b600a60009054906101000a900473ffffffffffffffffffffffffffffffffffffffff1673ffffffffffffffffffffffffffffffffffffffff163373ffffffffffffffffffffffffffffffffffffffff1614610c1a576040517f08c379a0000000000000000000000000000000000000000000000000000000008152600401610c1190612ba1565b60405180910390fd5b600b5481610c26610760565b610c309190612bf0565b1115610c71576040517f08c379a0000000000000000000000000000000000000000000000000000000008152600401610c6890612c70565b60405180910390fd5b610c7b33826113b1565b50565b610c90610c89610f25565b83836115ce565b5050565b610ca5610c9f610f25565b83610fe6565b610ce4576040517f08c379a0000000000000000000000000000000000000000000000000000000008152600401610cdb906128be565b60405180910390fd5b610cf08484848461173a565b50505050565b6060610d0182610eda565b6000610d0b611796565b90506000815111610d2b5760405180602001604052806000815250610d56565b80610d3584611828565b604051602001610d46929190612ccc565b6040516020818303038152906040525b915050919050565b600b5481565b6000600560008473ffffffffffffffffffffffffffffffffffffffff1673ffffffffffffffffffffffffffffffffffffffff16815260200190815260200160002060008373ffffffffffffffffffffffffffffffffffffffff1673ffffffffffffffffffffffffffffffffffffffff16815260200190815260200160002060009054906101000a900460ff16905092915050565b60007f80ac58cd000000000000000000000000000000000000000000000000000000007bffffffffffffffffffffffffffffffffffffffffffffffffffffffff1916827bffffffffffffffffffffffffffffffffffffffffffffffffffffffff19161480610ec357507f5b5e139f000000000000000000000000000000000000000000000000000000007bffffffffffffffffffffffffffffffffffffffffffffffffffffffff1916827bffffffffffffffffffffffffffffffffffffffffffffffffffffffff1916145b80610ed35750610ed2826118f6565b5b9050919050565b610ee381611960565b610f22576040517f08c379a0000000000000000000000000000000000000000000000000000000008152600401610f1990612a7d565b60405180910390fd5b50565b600033905090565b816004600083815260200190815260200160002060006101000a81548173ffffffffffffffffffffffffffffffffffffffff021916908373ffffffffffffffffffffffffffffffffffffffff160217905550808273ffffffffffffffffffffffffffffffffffffffff16610fa083610903565b73ffffffffffffffffffffffffffffffffffffffff167f8c5be1e5ebec7d5bd14f71427d1e84f3dd0314c0f7b2291e5b200ac8c7c3b92560405160405180910390a45050565b600080610ff283610903565b90508073ffffffffffffffffffffffffffffffffffffffff168473ffffffffffffffffffffffffffffffffffffffff16148061103457506110338185610d64565b5b8061107257508373ffffffffffffffffffffffffffffffffffffffff1661105a84610603565b73ffffffffffffffffffffffffffffffffffffffff16145b91505092915050565b8273ffffffffffffffffffffffffffffffffffffffff1661109b82610903565b73ffffffffffffffffffffffffffffffffffffffff16146110f1576040517f08c379a00000000000000000000000000000000000000000000000000000000081526004016110e890612d62565b60405180910390fd5b600073ffffffffffffffffffffffffffffffffffffffff168273ffffffffffffffffffffffffffffffffffffffff1603611160576040517f08c379a000000000000000000000000000000000000000000000000000000000815260040161115790612df4565b60405180910390fd5b61116d83838360016119a1565b8273ffffffffffffffffffffffffffffffffffffffff1661118d82610903565b73ffffffffffffffffffffffffffffffffffffffff16146111e3576040517f08c379a00000000000000000000000000000000000000000000000000000000081526004016111da90612d62565b60405180910390fd5b6004600082815260200190815260200160002060006101000a81549073ffffffffffffffffffffffffffffffffffffffff02191690556001600360008573ffffffffffffffffffffffffffffffffffffffff1673ffffffffffffffffffffffffffffffffffffffff168152602001908152602001600020600082825403925050819055506001600360008473ffffffffffffffffffffffffffffffffffffffff1673ffffffffffffffffffffffffffffffffffffffff16815260200190815260200160002060008282540192505081905550816002600083815260200190815260200160002060006101000a81548173ffffffffffffffffffffffffffffffffffffffff021916908373ffffffffffffffffffffffffffffffffffffffff160217905550808273ffffffffffffffffffffffffffffffffffffffff168473ffffffffffffffffffffffffffffffffffffffff167fddf252ad1be2c89b69c2b068fc378daa952ba7f163c4a11628f55a4df523b3ef60405160405180910390a461136f8383836001611aff565b505050565b60006002600083815260200190815260200160002060009054906101000a900473ffffffffffffffffffffffffffffffffffffffff169050919050565b600073ffffffffffffffffffffffffffffffffffffffff168273ffffffffffffffffffffffffffffffffffffffff1603611420576040517f08c379a000000000000000000000000000000000000000000000000000000000815260040161141790612e60565b60405180910390fd5b61142981611960565b15611469576040517f08c379a000000000000000000000000000000000000000000000000000000000815260040161146090612ecc565b60405180910390fd5b6114776000838360016119a1565b61148081611960565b156114c0576040517f08c379a00000000000000000000000000000000000000000000000000000000081526004016114b790612ecc565b60405180910390fd5b6001600360008473ffffffffffffffffffffffffffffffffffffffff1673ffffffffffffffffffffffffffffffffffffffff16815260200190815260200160002060008282540192505081905550816002600083815260200190815260200160002060006101000a81548173ffffffffffffffffffffffffffffffffffffffff021916908373ffffffffffffffffffffffffffffffffffffffff160217905550808273ffffffffffffffffffffffffffffffffffffffff16600073ffffffffffffffffffffffffffffffffffffffff167fddf252ad1be2c89b69c2b068fc378daa952ba7f163c4a11628f55a4df523b3ef60405160405180910390a46115ca600083836001611aff565b5050565b8173ffffffffffffffffffffffffffffffffffffffff168373ffffffffffffffffffffffffffffffffffffffff160361163c576040517f08c379a000000000000000000000000000000000000000000000000000000000815260040161163390612f38565b60405180910390fd5b80600560008573ffffffffffffffffffffffffffffffffffffffff1673ffffffffffffffffffffffffffffffffffffffff16815260200190815260200160002060008473ffffffffffffffffffffffffffffffffffffffff1673ffffffffffffffffffffffffffffffffffffffff16815260200190815260200160002060006101000a81548160ff0219169083151502179055508173ffffffffffffffffffffffffffffffffffffffff168373ffffffffffffffffffffffffffffffffffffffff167f17307eab39ab6107e8899845ad3d59bd9653f200f220920489ca2b5937696c318360405161172d91906121c2565b60405180910390a3505050565b61174584848461107b565b61175184848484611b05565b611790576040517f08c379a000000000000000000000000000000000000000000000000000000000815260040161178790612fca565b60405180910390fd5b50505050565b6060600d80546117a5906126f7565b80601f01602080910402602001604051908101604052809291908181526020018280546117d1906126f7565b801561181e5780601f106117f35761010080835404028352916020019161181e565b820191906000526020600020905b81548152906001019060200180831161180157829003601f168201915b5050505050905090565b60606000600161183784611c8c565b01905060008167ffffffffffffffff811115611856576118556124da565b5b6040519080825280601f01601f1916602001820160405280156118885781602001600182028036833780820191505090505b509050600082602001820190505b6001156118eb578080600190039150507f3031323334353637383961626364656600000000000000000000000000000000600a86061a8153600a85816118df576118de612fea565b5b04945060008503611896575b819350505050919050565b60007f01ffc9a7000000000000000000000000000000000000000000000000000000007bffffffffffffffffffffffffffffffffffffffffffffffffffffffff1916827bffffffffffffffffffffffffffffffffffffffffffffffffffffffff1916149050919050565b60008073ffffffffffffffffffffffffffffffffffffffff1661198283611374565b73ffffffffffffffffffffffffffffffffffffffff1614159050919050565b6119ad84848484611ddf565b60018111156119f1576040517f08c379a00000000000000000000000000000000000000000000000000000000081526004016119e89061308b565b60405180910390fd5b6000829050600073ffffffffffffffffffffffffffffffffffffffff168573ffffffffffffffffffffffffffffffffffffffff1603611a3857611a3381611de5565b611a77565b8373ffffffffffffffffffffffffffffffffffffffff168573ffffffffffffffffffffffffffffffffffffffff1614611a7657611a758582611e2e565b5b5b600073ffffffffffffffffffffffffffffffffffffffff168473ffffffffffffffffffffffffffffffffffffffff1603611ab957611ab481611f9b565b611af8565b8473ffffffffffffffffffffffffffffffffffffffff168473ffffffffffffffffffffffffffffffffffffffff1614611af757611af6848261206c565b5b5b5050505050565b50505050565b6000611b268473ffffffffffffffffffffffffffffffffffffffff166120eb565b15611c7f578373ffffffffffffffffffffffffffffffffffffffff1663150b7a02611b4f610f25565b8786866040518563ffffffff1660e01b8152600401611b719493929190613100565b6020604051808303816000875af1925050508015611bad57506040513d601f19601f82011682018060405250810190611baa9190613161565b60015b611c2f573d8060008114611bdd576040519150601f19603f3d011682016040523d82523d6000602084013e611be2565b606091505b506000815103611c27576040517f08c379a0000000000000000000000000000000000000000000000000000000008152600401611c1e90612fca565b60405180910390fd5b805181602001fd5b63150b7a0260e01b7bffffffffffffffffffffffffffffffffffffffffffffffffffffffff1916817bffffffffffffffffffffffffffffffffffffffffffffffffffffffff191614915050611c84565b600190505b949350505050565b600080600090507a184f03e93ff9f4daa797ed6e38ed64bf6a1f0100000000000000008310611cea577a184f03e93ff9f4daa797ed6e38ed64bf6a1f0100000000000000008381611ce057611cdf612fea565b5b0492506040810190505b6d04ee2d6d415b85acef81000000008310611d27576d04ee2d6d415b85acef81000000008381611d1d57611d1c612fea565b5b0492506020810190505b662386f26fc100008310611d5657662386f26fc100008381611d4c57611d4b612fea565b5b0492506010810190505b6305f5e1008310611d7f576305f5e1008381611d7557611d74612fea565b5b0492506008810190505b6127108310611da4576127108381611d9a57611d99612fea565b5b0492506004810190505b60648310611dc75760648381611dbd57611dbc612fea565b5b0492506002810190505b600a8310611dd6576001810190505b80915050919050565b50505050565b6008805490506009600083815260200190815260200160002081905550600881908060018154018082558091505060019003906000526020600020016000909190919091505550565b60006001611e3b84610989565b611e45919061318e565b9050600060076000848152602001908152602001600020549050818114611f2a576000600660008673ffffffffffffffffffffffffffffffffffffffff1673ffffffffffffffffffffffffffffffffffffffff168152602001908152602001600020600084815260200190815260200160002054905080600660008773ffffffffffffffffffffffffffffffffffffffff1673ffffffffffffffffffffffffffffffffffffffff168152602001908152602001600020600084815260200190815260200160002081905550816007600083815260200190815260200160002081905550505b6007600084815260200190815260200160002060009055600660008573ffffffffffffffffffffffffffffffffffffffff1673ffffffffffffffffffffffffffffffffffffffff16815260200190815260200160002060008381526020019081526020016000206000905550505050565b60006001600880549050611faf919061318e565b9050600060096000848152602001908152602001600020549050600060088381548110611fdf57611fde612a02565b5b90600052602060002001549050806008838154811061200157612000612a02565b5b9060005260206000200181905550816009600083815260200190815260200160002081905550600960008581526020019081526020016000206000905560088054806120505761204f6131c2565b5b6001900381819060005260206000200160009055905550505050565b600061207783610989565b905081600660008573ffffffffffffffffffffffffffffffffffffffff1673ffffffffffffffffffffffffffffffffffffffff168152602001908152602001600020600083815260200190815260200160002081905550806007600084815260200190815260200160002081905550505050565b6000808273ffffffffffffffffffffffffffffffffffffffff163b119050919050565b6000604051905090565b600080fd5b600080fd5b60007fffffffff0000000000000000000000000000000000000000000000000000000082169050919050565b61215781612122565b811461216257600080fd5b50565b6000813590506121748161214e565b92915050565b6000602082840312156121905761218f612118565b5b600061219e84828501612165565b91505092915050565b60008115159050919050565b6121bc816121a7565b82525050565b60006020820190506121d760008301846121b3565b92915050565b600081519050919050565b600082825260208201905092915050565b60005b838110156122175780820151818401526020810190506121fc565b60008484015250505050565b6000601f19601f8301169050919050565b600061223f826121dd565b61224981856121e8565b93506122598185602086016121f9565b61226281612223565b840191505092915050565b600060208201905081810360008301526122878184612234565b905092915050565b6000819050919050565b6122a28161228f565b81146122ad57600080fd5b50565b6000813590506122bf81612299565b92915050565b6000602082840312156122db576122da612118565b5b60006122e9848285016122b0565b91505092915050565b600073ffffffffffffffffffffffffffffffffffffffff82169050919050565b600061231d826122f2565b9050919050565b61232d81612312565b82525050565b60006020820190506123486000830184612324565b92915050565b61235781612312565b811461236257600080fd5b50565b6000813590506123748161234e565b92915050565b6000806040838503121561239157612390612118565b5b600061239f85828601612365565b92505060206123b0858286016122b0565b9150509250929050565b6123c38161228f565b82525050565b60006020820190506123de60008301846123ba565b92915050565b6000806000606084860312156123fd576123fc612118565b5b600061240b86828701612365565b935050602061241c86828701612365565b925050604061242d868287016122b0565b9150509250925092565b60006020828403121561244d5761244c612118565b5b600061245b84828501612365565b91505092915050565b61246d816121a7565b811461247857600080fd5b50565b60008135905061248a81612464565b92915050565b600080604083850312156124a7576124a6612118565b5b60006124b585828601612365565b92505060206124c68582860161247b565b9150509250929050565b600080fd5b600080fd5b7f4e487b7100000000000000000000000000000000000000000000000000000000600052604160045260246000fd5b61251282612223565b810181811067ffffffffffffffff82111715612531576125306124da565b5b80604052505050565b600061254461210e565b90506125508282612509565b919050565b600067ffffffffffffffff8211156125705761256f6124da565b5b61257982612223565b9050602081019050919050565b82818337600083830152505050565b60006125a86125a384612555565b61253a565b9050828152602081018484840111156125c4576125c36124d5565b5b6125cf848285612586565b509392505050565b600082601f8301126125ec576125eb6124d0565b5b81356125fc848260208601612595565b91505092915050565b6000806000806080858703121561261f5761261e612118565b5b600061262d87828801612365565b945050602061263e87828801612365565b935050604061264f878288016122b0565b925050606085013567ffffffffffffffff8111156126705761266f61211d565b5b61267c878288016125d7565b91505092959194509250565b6000806040838503121561269f5761269e612118565b5b60006126ad85828601612365565b92505060206126be85828601612365565b9150509250929050565b7f4e487b7100000000000000000000000000000000000000000000000000000000600052602260045260246000fd5b6000600282049050600182168061270f57607f821691505b602082108103612722576127216126c8565b5b50919050565b7f4552433732313a20617070726f76616c20746f2063757272656e74206f776e6560008201527f7200000000000000000000000000000000000000000000000000000000000000602082015250565b60006127846021836121e8565b915061278f82612728565b604082019050919050565b600060208201905081810360008301526127b381612777565b9050919050565b7f4552433732313a20617070726f76652063616c6c6572206973206e6f7420746f60008201527f6b656e206f776e6572206f7220617070726f76656420666f7220616c6c000000602082015250565b6000612816603d836121e8565b9150612821826127ba565b604082019050919050565b6000602082019050818103600083015261284581612809565b9050919050565b7f4552433732313a2063616c6c6572206973206e6f7420746f6b656e206f776e6560008201527f72206f7220617070726f76656400000000000000000000000000000000000000602082015250565b60006128a8602d836121e8565b91506128b38261284c565b604082019050919050565b600060208201905081810360008301526128d78161289b565b9050919050565b7f455243373231456e756d657261626c653a206f776e657220696e646578206f7560008201527f74206f6620626f756e6473000000000000000000000000000000000000000000602082015250565b600061293a602b836121e8565b9150612945826128de565b604082019050919050565b600060208201905081810360008301526129698161292d565b9050919050565b7f455243373231456e756d657261626c653a20676c6f62616c20696e646578206f60008201527f7574206f6620626f756e64730000000000000000000000000000000000000000602082015250565b60006129cc602c836121e8565b91506129d782612970565b604082019050919050565b600060208201905081810360008301526129fb816129bf565b9050919050565b7f4e487b7100000000000000000000000000000000000000000000000000000000600052603260045260246000fd5b7f4552433732313a20696e76616c696420746f6b656e2049440000000000000000600082015250565b6000612a676018836121e8565b9150612a7282612a31565b602082019050919050565b60006020820190508181036000830152612a9681612a5a565b9050919050565b7f4552433732313a2061646472657373207a65726f206973206e6f74206120766160008201527f6c6964206f776e65720000000000000000000000000000000000000000000000602082015250565b6000612af96029836121e8565b9150612b0482612a9d565b604082019050919050565b60006020820190508181036000830152612b2881612aec565b9050919050565b7f4f6e6c79206f776e65722063616e20706572666f726d2074686973206163746960008201527f6f6e210000000000000000000000000000000000000000000000000000000000602082015250565b6000612b8b6023836121e8565b9150612b9682612b2f565b604082019050919050565b60006020820190508181036000830152612bba81612b7e565b9050919050565b7f4e487b7100000000000000000000000000000000000000000000000000000000600052601160045260246000fd5b6000612bfb8261228f565b9150612c068361228f565b9250828201905080821115612c1e57612c1d612bc1565b5b92915050565b7f596f752063616e206e6f74206d696e74206d6f7265207468616e203500000000600082015250565b6000612c5a601c836121e8565b9150612c6582612c24565b602082019050919050565b60006020820190508181036000830152612c8981612c4d565b9050919050565b600081905092915050565b6000612ca6826121dd565b612cb08185612c90565b9350612cc08185602086016121f9565b80840191505092915050565b6000612cd88285612c9b565b9150612ce48284612c9b565b91508190509392505050565b7f4552433732313a207472616e736665722066726f6d20696e636f72726563742060008201527f6f776e6572000000000000000000000000000000000000000000000000000000602082015250565b6000612d4c6025836121e8565b9150612d5782612cf0565b604082019050919050565b60006020820190508181036000830152612d7b81612d3f565b9050919050565b7f4552433732313a207472616e7366657220746f20746865207a65726f2061646460008201527f7265737300000000000000000000000000000000000000000000000000000000602082015250565b6000612dde6024836121e8565b9150612de982612d82565b604082019050919050565b60006020820190508181036000830152612e0d81612dd1565b9050919050565b7f4552433732313a206d696e7420746f20746865207a65726f2061646472657373600082015250565b6000612e4a6020836121e8565b9150612e5582612e14565b602082019050919050565b60006020820190508181036000830152612e7981612e3d565b9050919050565b7f4552433732313a20746f6b656e20616c7265616479206d696e74656400000000600082015250565b6000612eb6601c836121e8565b9150612ec182612e80565b602082019050919050565b60006020820190508181036000830152612ee581612ea9565b9050919050565b7f4552433732313a20617070726f766520746f2063616c6c657200000000000000600082015250565b6000612f226019836121e8565b9150612f2d82612eec565b602082019050919050565b60006020820190508181036000830152612f5181612f15565b9050919050565b7f4552433732313a207472616e7366657220746f206e6f6e20455243373231526560008201527f63656976657220696d706c656d656e7465720000000000000000000000000000602082015250565b6000612fb46032836121e8565b9150612fbf82612f58565b604082019050919050565b60006020820190508181036000830152612fe381612fa7565b9050919050565b7f4e487b7100000000000000000000000000000000000000000000000000000000600052601260045260246000fd5b7f455243373231456e756d657261626c653a20636f6e736563757469766520747260008201527f616e7366657273206e6f7420737570706f727465640000000000000000000000602082015250565b60006130756035836121e8565b915061308082613019565b604082019050919050565b600060208201905081810360008301526130a481613068565b9050919050565b600081519050919050565b600082825260208201905092915050565b60006130d2826130ab565b6130dc81856130b6565b93506130ec8185602086016121f9565b6130f581612223565b840191505092915050565b60006080820190506131156000830187612324565b6131226020830186612324565b61312f60408301856123ba565b818103606083015261314181846130c7565b905095945050505050565b60008151905061315b8161214e565b92915050565b60006020828403121561317757613176612118565b5b60006131858482850161314c565b91505092915050565b60006131998261228f565b91506131a48361228f565b92508282039050818111156131bc576131bb612bc1565b5b92915050565b7f4e487b7100000000000000000000000000000000000000000000000000000000600052603160045260246000fdfea2646970667358221220acb1e66878805788a41b74a3b20449e5810e7f06d074af89f7ba1361a8c6a42a64736f6c6343000811003368747470733a2f2f676174657761792e70696e6174612e636c6f75642f697066732f516d62374c3979327a6351713756447a536e5071475042633578565433516b686476394e344d4e727468577134542f536f6d65207375706572206865726f657320726561647920666f722074686520626174746c65",
  "linkReferences": {},
  "deployedLinkReferences": {}
}